:020000040800F2
:100000000080002059280008571F00085F1F0008C3
:10001000671F00086F1F0008771F0008000000001E
:100020000000000000000000000000007F1F00082A
:100030008D1F0008000000009B1F0008A91F00087A
:10004000B51F0008A9280008A92800080000000022
:10005000A9280008A9280008A92800080000000015
:10006000A9280008A928000800000000A928000805
:10007000A9280008A9280008A9280008A92800081C
:10008000A9280008A9280008A9280008A92800080C
:10009000A9280008A9280008A9280008A9280008FC
:1000A000A9280008A9280008A9280008A9280008EC
:1000B000A9280008A9280008A9280008A9280008DC
:1000C000A9280008A9280008A9280008A9280008CC
:1000D00000000000A9280008A9280008C91F00087E
:1000E000A9280008A9280008A9280008A9280008AC
:1000F000A9280008A9280008A92800080000000075
:1001000000000000DD1F0008F11F0008A9280008FA
:10011000A9280008A9280008A9280008A92800087B
:1001200005200008A9280008192000082D20000833
:10013000412000080000000000000000A92800087D
:10014000A9280008000000000000000000000000D6
:100150000000000000000000A928000800000000C6
:100160000000000000000000A9280008A9280008DD
:10017000000000000000000000000000000000007F
:10018000000000000000000000000000000000006F
:10019000000000000000000000000000000000005F
:1001A0000000000000000000A9280008A92800089D
:1001B000A9280008A9280008A9280008A9280008DB
:1001C000A9280008A928000800000000000000007D
:1001D000000000000000000000000000A928000846
:1001E000A928000800000000000000000000000036
:1001F00000000000000000000000000000000000FF
:1002000000000000A9280008A9280008000000003C
:1002100000000000A9280008000000000000000005
:10022000000000000000000000000000A9280008F5
:10023000A9280008000000000000000000000000E5
:10024000000000000000000000000000A9280008D5
:08025000A9280008A9280008F4
:1002580010B5054C237833B9044B13B10448AFF3F8
:1002680000800123237010BDE00000200000000082
:10027800489F000808B5034B1BB103490348AFF377
:10028800008008BD00000000E4000020489F00082E
:10029800034613F8012B002AFBD1181A01387047BE
:1002A80053B94AB9002908BF00281CBF4FF0FF31D5
:1002B8004FF0FF3000F07EB9ADF1080C6DE904CEC7
:1002C80000F006F8DDF804E0DDE9022304B0704729
:1002D8002DE9F04F099D0C46002B4DD18A420F465F
:1002E80084469646B2FA82F360D94BB102FA03FE0D
:1002F800C3F120029F4000FA03FC20FA02F21743E0
:100308004FEA1E461FFA8EF44FEA1C42B7FBF6F17D
:1003180006FB117701FB04F042EA0742904208D934
:100328001EEB020201F1FF3702D2904200F22D814A
:100338003946121A1FFA8CFCB2FBF6F006FB1022A3
:1003480000FB04F44CEA024C644508D91EEB0C0C83
:1003580000F1FF3202D2644500F21A81104640EAE9
:100368000140ACEB040C002125B12CFA03F3002268
:10037800C5E90032BDE8F08F8B4205D90DB1C5E95A
:10038800000100210846F5E7B3FA83F100294DD1B1
:10039800A342C0F0F280904280F0EF8006462346E8
:1003A8000846002DE6D0C5E90063E3E7002B40F0DE
:1003B800A2808A1A4FEA1E471FFA8EF60121B2FB65
:1003C800F7F407FB14204FEA1C4242EA004206FBFE
:1003D80004F090420FD91EEB020204F1FF382CBF43
:1003E8004FF001094FF00009904203D9B9F1000F0D
:1003F80000F0C8804446121A1FFA8CFCB2FBF7F0D2
:1004080007FB102200FB06F64CEA024C664508D9A9
:100418001EEB0C0C00F1FF3202D2664500F2BB80E5
:100428001046ACEB060C40EA04409DE7C1F12006FB
:100438008B4004FA01FE22FA06F720FA06FCF44083
:100448008A401F434EEA0C0300FA01FE4FEA1748A0
:100458004FEA13491FFA87FCB4FBF8F008FB104475
:1004680049EA044400FB0CF9A1450ED93C1900F1F6
:10047800FF3A2CBF4FF0010B4FF0000BA14503D9F9
:10048800BBF1000F00F093805046A4EB09041FFA5B
:1004980083F9B4FBF8F308FB134403FB0CFC49EAAB
:1004A8000444A44506D93C1903F1FF3801D2A445F8
:1004B8007AD8434643EA0040A4EB0C04A0FB029818
:1004C8004445CC46434602D306D1CE4504D2013832
:1004D800B9EB020C68EB07035DB1BEEB0C0264EBF1
:1004E800030404FA06F622FA01F3CC401E43C5E9D8
:1004F800006400213EE702FA03FEC3F1200104FA7A
:1005080003F200FA03FCCC404FEA1E4720FA01F13F
:100518001FFA8EF6B4FBF7F00A4307FB1044110CE0
:1005280041EA044100FB06F48C420ED91EEB01019E
:1005380000F1FF382CBF4FF001094FF000098C4241
:1005480002D9B9F1000F2CD04046091B92B2B1FB79
:10055800F7F407FB141142EA014204FB06F1914249
:1005680007D91EEB020204F1FF3801D2914215D8D7
:100578004446521A44EA004121E7861A64EB030311
:1005880001200EE7023C724435E702397244D0E696
:10059800F4440238E3E6F444023842E7023C724489
:1005A800E7E702387144D0E7023B3C4482E702386F
:1005B8003C446AE7704700BF80B400AF0F4B1B682C
:1005C800012B06D10E4B00221A600E4B00221A6036
:1005D8000FE00C4B1B68B3F5B47F03DA084B01221C
:1005E8001A6006E0064B00221A60064B4FF4B472FC
:1005F8001A6000BFBD465DF8047B7047000000200C
:10060800000100205401002080B500AF2A4B1B6870
:10061800002B0BD1294B00221A60294B00221A60AB
:1006280000F09EF8244B01221A6043E0254B1B681A
:10063800B3F5B47F35DA214B1B68012B0BD100F0E1
:1006480097F9204B1B689BB205339AB21E4B1A8050
:100658001A4B02221A60194B1B68022B2AD1184B1D
:100668001B68B3F1FF3F06D0174B1B881A46154B82
:100678001B689A4207DA114B00221A60104B0022BD
:100688001A6000F06DF80E4B1B68012B12D10F4B4E
:1006980000221A600B4B4FF4B4721A6000F0B6F8DF
:1006A80008E00A4B00221A60064B4FF4B4721A6035
:1006B80000F0ACF800BF80BDFC000020080100205D
:1006C8000401002054010020100100200001002036
:1006D80080B500AF094B1B68012B07D100F096F8D5
:1006E800064B00221A6000F00DF805E0044B1B6869
:1006F800012B01D100F006F800BF80BDFC000020EE
:100708000C01002080B500AF40220021114808F0FC
:1007180057FF1148FFF7BCFD03461A460E490D481E
:1007280008F0B0FF0B48FFF7B3FD03469AB24FF04D
:10073800FF330849094807F05EFB0648FFF7A8FDA4
:1007480003469AB24FF0FF330249044807F053FBBF
:1007580000BF80BD14010020280000206010002088
:1007680080B500AF40220021234808F029FF234824
:10077800FFF78EFD03461A4620491F4808F082FFFE
:100788001D48FFF785FD03469AB24FF0FF331A491B
:100798001B4807F030FB1848FFF77AFD03469AB26A
:1007A8004FF0FF331449164807F025FB402200217B
:1007B800114808F005FF0A2212490F4808F062FFA5
:1007C8000D48FFF765FD03469AB24FF0FF330A491B
:1007D8000B4807F010FB0848FFF75AFD03469AB28A
:1007E8004FF0FF330449064807F005FB064B00228B
:1007F8001A6000BF80BD00BF140100200400002063
:1008080060100020609F00080401002080B500AF40
:10081800402200210F4808F0D3FE0B220E490D4854
:1008280008F030FF0B48FFF733FD03469AB24FF04C
:10083800FF330849094807F0DEFA0648FFF728FDA4
:1008480003469AB24FF0FF330249044807F0D3FA3F
:1008580000BF80BD140100206C9F000860100020BC
:1008680080B500AF394B1B68012B6CD1384B1B6826
:1008780006223849184608F0ABFE0346002B12D171
:10088800354B1B6804220021184608F099FE324BAC
:100898001B681A462E4B1B6806331B6813602F4BC8
:1008A80001221A604CE02A4B1B6805222C49184685
:1008B80008F08EFE0346002B0FD12A4B1B6804223A
:1008C8000021184608F07CFE214B1B68254A126857
:1008D8001946032001F024FF32E01D4B1B68052256
:1008E8002149184608F074FE0346002B0FD11D4B12
:1008F8001B6804220021184608F062FE144B1B688E
:10090800184A12681946032001F00AFF18E0104B34
:100918001B6806221549184608F05AFE0346002BA4
:100928000ED1104B1B6804220021184608F048FE1F
:10093800074B1B680B4A12681946032001F0F0FEAA
:10094800024B00221A6000BF80BD00BF5801002082
:100958005C010020789F0008600100200801002049
:10096800809F000864010020889F0008909F00086D
:1009780080B500AF074B084A1A60064B0822DA60B8
:10098800064B1B681A460349054802F001FC00BFE4
:1009980080BD00BF68010020706038106001002031
:1009A800700D002080B588B002AF786039603B6870
:1009B800154AA2FB0323DB0A7B613A68124BA3FBAF
:1009C8000213DB0A4FF4616101FB03F3D31A0F4AE8
:1009D800A2FB03235B093B6139680C4BA3FB012392
:1009E8005A0913461B019B1A9B00CA1AFA60FB6836
:1009F80000933B697A690649786808F0C1FD00BF31
:100A08001837BD4680BD00BFC5B3A29189888888C4
:100A1800989F000880B58CB002AF786039600023D9
:100A28007B610023BB6107F11003032200211846F4
:100A380008F0C6FD07F1100302227968184608F08D
:100A4800D9FD07F10C0303220021184608F0B8FD70
:100A58007B68991C07F10C030222184608F0CAFDAE
:100A680007F1080303220021184608F0A9FD7B6856
:100A7800191D07F108030222184608F0BBFD07F10B
:100A88001003184608F0F3FC03463B6207F10C0319
:100A9800184608F0ECFC03467B6207F10803184689
:100AA80008F0E5FC0346FB617B6A0C2B8CBF012335
:100AB8000023DBB2002B64D101227B6A02FA03F324
:100AC80041F2AA521A40002A14BF01220022D2B2CF
:100AD800002A12D103F42562002A14BF0122002241
:100AE800D2B2002A3FD103F00403002B14BF012324
:100AF8000023DBB2002B15D143E03B6A1F2B05D145
:100B080001233B627B6A01337B6202E03B6A01336B
:100B18003B627B6A0C2B33D901237B62FB6901336F
:100B2800FB612DE0FB69184600F03AF80346002BFC
:100B38000CD03B6A1D2B05D101233B627B6A013334
:100B48007B621EE03B6A01333B621AE03B6A1C2B66
:100B580005D101233B627B6A01337B6211E03B6A6A
:100B680001333B620DE03B6A1E2B05D101233B623A
:100B78007B6A01337B6204E03B6A01333B6200E03D
:100B880000BFFB6900937B6A3A6A0449386808F039
:100B9800F7FC002318462837BD4680BD989F0008FB
:100BA80080B483B000AF78607B6803F00303002B48
:100BB8000CD17A68114B83FB02135911D317CB1A46
:100BC800642101FB03F3D31A002B0DD17A680B4B78
:100BD80083FB0213D911D317CB1A4FF4C87101FB49
:100BE80003F3D31A002B01D1012300E00023184698
:100BF8000C37BD465DF8047B704700BF1F85EB517D
:100C080080B584B000AF786039600023FB7300239F
:100C1800BB7300237B737B681B783B727B685B78B4
:100C28007B720023BB7207F10803184608F01FFC0B
:100C38000346FB73FB7B172B02D94FF0FF333AE0D7
:100C48007B689B783B727B68DB787B720023BB7286
:100C580007F10803184608F00AFC0346BB73BB7B80
:100C68003B2B02D94FF0FF3325E07B681B793B72A1
:100C78007B685B797B720023BB7207F10803184617
:100C880008F0F5FB03467B737B7B3B2B02D94FF0C7
:100C9800FF3310E0FB7B4FF4616202FB03F1BA7B88
:100CA80013461B019B1A9B00CA187B7B13441A46E8
:100CB8003B681A60012318461037BD4680BD000006
:100CC80080B58AB000AFF860B9601346FB710023A5
:100CD8007B6207F11C0306220021184608F070FC0D
:100CE80007F1140306220021184608F069FC344B6A
:100CF8001B68DAB2334B1A70FB79032B20D0032B15
:100D080052DC012B02D0022B34D04DE0B968F868D0
:100D180000F05EF878627B6A012B47D10622B96839
:100D2800294808F067FC0622F968284808F062FCA0
:100D38002349F868FFF764FF224AFB79137035E00E
:100D4800B968F86800F044F878627B6A012B2FD103
:100D58000622B9681C4808F04DFC0622F9681B48B1
:100D680008F048FC1649F868FFF74AFF154AFB796E
:100D780013701DE0B968F86800F02AF878627B6A99
:100D8800012B17D10622B9680F4808F033FC062258
:100D9800F9680E4808F02EFC0949F868FFF730FF9B
:100DA800084AFB79137005E000BF04E000BF02E0C9
:100DB80000BF00E000BF7B6A18462837BD4680BDEB
:100DC800780E0020680000206C0000208C010020B4
:100DD80080B58EB000AF7860396007F11C0303223C
:100DE8000021184608F0ECFB07F11C0302223968C1
:100DF800184608F0FFFB07F11803032200211846E4
:100E080008F0DEFB3B68991C07F11803022218461C
:100E180008F0F0FB07F1140303220021184608F03C
:100E2800CFFB3B68191D07F114030222184608F08E
:100E3800E1FB07F1100303220021184608F0C0FB6C
:100E480007F1100302227968184608F0D3FB07F16E
:100E58000C0303220021184608F0B2FB7B68991C9A
:100E680007F10C030222184608F0C4FB07F1080337
:100E780003220021184608F0A3FB7B68191D07F11F
:100E880008030222184608F0B5FB07F11C031846B0
:100E980008F0EDFA03467B6307F11803184608F0DB
:100EA800E6FA03463B6307F11403184608F0DFFA35
:100EB8000346FB6207F11003184608F0D8FA034608
:100EC800BB6207F10C03184608F0D1FA03467B62AF
:100ED80007F10803184608F0CAFA03463B62FB6AA2
:100EE800632B05D83B6B0C2B02D83B6B002B01D135
:100EF800002352E0BB6A172B05D87B6A3B2B02D82C
:100F08003B6A3B2B01D9002347E03B6B0C2B8CBF82
:100F180001230023DBB2002B3ED101223B6B02FAF6
:100F280003F341F2AA521A40002A14BF01220022F8
:100F3800D2B2002A12D103F42562002A14BF01227A
:100F48000022D2B2002A1FD103F00403002B14BFE1
:100F580001230023DBB2002B05D11DE07B6B1F2B87
:100F680017D9002319E0FB6A1846FFF719FE034654
:100F7800002B04D07B6B1D2B0DD900230DE07B6B60
:100F88001C2B08D9002308E07B6B1E2B04D90023F7
:100F980003E000BF00E000BF012318463837BD4614
:100FA80080BD000080B582B000AF78603960094B21
:100FB8001B6819460848FFF7F5FC0749786808F0E8
:100FC80059FB0649386808F055FB00BF0837BD468D
:100FD80080BD00BF780E00208C0100206C0000202E
:100FE80080B500AF264B274A1A60254B00225A606D
:100FF800234B00229A60224B0022DA60204B012208
:101008001A741F4B00225A741D4B00229A741C4BF1
:1010180008225A611A4B01229A61194B0422DA619B
:10102800174B01221A62164B18225A62144B0122DE
:101038009A62134B0122DA62114B01221A63104B98
:1010480000225A630E4B00229A630D4B0022DA638A
:101058000B4801F01BFF0346002B01D000F08EFE69
:10106800094B4FF080425A60084B4FF080425A605B
:10107800074B00221946024802F0D6F900BF80BD8E
:10108800700D002000A4004094010020B801002049
:101098007D11000880B5ACB000AF786007F19C0303
:1010A80000221A605A609A60DA601A6107F1100328
:1010B80088220021184608F083FA7B681B682A4AB0
:1010C80093424DD14FF000024FF00403C7E90423C7
:1010D8000023FB6607F11003184603F0CFFD034613
:1010E800002B01D000F04AFE204BD3F8A0301F4A55
:1010F80043F40073C2F8A0301C4BD3F8A03003F4BB
:101108000073FB60FB68194BD3F88C30174A43F027
:101118000203C2F88C30154BD3F88C3003F002036D
:10112800BB60BB684FF4A053C7F89C300223C7F8D4
:10113800A0300023C7F8A4300023C7F8A83009233B
:10114800C7F8AC3007F19C031946094802F0B2FC15
:1011580000220021272001F01BFD272001F032FD8D
:1011680000BFB037BD4680BD00A40040000C02445B
:101178000004024280B584B000AF786039603B68F3
:1011880003F00103002B00F0C181A44BA44A4021C5
:10119800A44802F041F80346002B01D000F0EEFD10
:1011A800A14B00221A709E4B1B68FB60FB689F4A8C
:1011B800934200F06981FB689C4A934200F29B814C
:1011C800FB689B4A934222D0FB68994A934200F2FB
:1011D8009281FB68974A934200F08581FB68954AA3
:1011E800934200F28881FB68934A934200F0B680EC
:1011F800FB68914A934200F27E81FB688F4A9342D2
:1012080050D0FB688E4A934200F0D88073E1834B3C
:101218001A788C4B1A708B4B1B785A1E1346DB00BE
:10122800991A894B1B781A461346DB0113445B0055
:1012380013440B44854A134485490722184608F08D
:1012480021FA764B1A78834B1B785340DAB2814BDC
:101258001A70724B1B78252B40F04F817D4B1B7801
:10126800012B16D17C4B01221A707A4B00221A707E
:101278007A4B1B680133794A1360734B1B78002B38
:1012880003D1714B01221A7037E16F4B00221A709B
:1012980033E1704B00221A70714B1B680133704A9E
:1012A80013602AE16F4B5D4A92E8030083E803006C
:1012B8006C4B1B7803F00103DBB21A4610216A4815
:1012C80002F04AFD674B1B78DB00DBB203F020031A
:1012D800DBB21A460821644802F03EFD614B1B78D8
:1012E8005B00DBB203F02003DBB21A4640215E4804
:1012F80002F032FD5B4B1B785B00DBB223F07F030F
:10130800DBB21A462021584802F026FD554B5B787F
:1013180003F00103DBB21A464FF40051534802F0C0
:101328001BFD504B5B78DB00DBB203F02003DBB224
:101338001A4680214C4802F00FFD4A4B5B78102B6F
:1013480003D14B4B01221A60D9E0464B5B78002B46
:1013580040F0D580464B00221A60D0E02F4B1A7817
:10136800384B1A70374B1B785A1E1346DB009B1AF2
:10137800404A134436490722184608F083F9274B98
:101388001A783D4B1B785340DAB23B4B1A702D4B01
:101398001B78022B40F2B5802A4B00221A70364B7C
:1013A8001B78002B06D1344B00221A70314B0022D7
:1013B8001A75A6E0304B00221A70A2E0174B1A7873
:1013C800204B1A701F4B1B785A1E1346DB009B1AC2
:1013D8002A4A13441E490722184608F053F90F4BAE
:1013E8001A78274B1B785340DAB2254B1A70154BE5
:1013F8001B78242B40F28780124B00221A70204B56
:101408001B78012B06D11E4B00221A701D4B01229E
:101418001A7078E01A4B00221A7074E0E00100207C
:10142800B8010020700D00201A02002060703218E8
:101438006070221860703910607037106070211069
:1014480060703610110200201002002028020020CF
:10145800E1010020120200201302002020020020D7
:101468001C02002048080020000402420008024232
:10147800000000203008002014020020640800202A
:101488001502002016020020224B1A78224B1A70EF
:10149800214B1B785A1E1346DB009B1A1F4A134424
:1014A8001F490722184608F0EDF81A4B1A781D4B09
:1014B8001B785340DAB21B4B1A70174B1B78242B3E
:1014C80023D9154B00221A70164B1B78012B06D115
:1014D800144B00221A70144B01221A7015E0114B9C
:1014E80000221A7011E00B4B1A78104B1A70104B2F
:1014F80001221A700AE000BF08E000BF06E000BF42
:1015080004E000BF02E000BF00E000BF00BF1037EA
:10151800BD4680BDE001002011020020E409002042
:10152800E101002018020020190200206C0D0020A3
:101538002402002080B582B000AF00237B60664B98
:101548001B78002B72D065496548FFF72BFD624B6D
:1015580000221A70634B644A1268114619800233DC
:10156800120C1A70614B184600F07AFA604B06228A
:101578005A49184608F03EF85E4B06225849184664
:1015880008F038F85C4B1B78002B0DD05B4B40F211
:1015980003125B49184608F075F840F2031200215F
:1015A800574808F00DF80DE0544B564940F2031225
:1015B800184608F067F8534B40F20312002118460A
:1015C80007F0FEFF082200214F4807F0F9FF4F4BB4
:1015D8001B681A464E494C4807F0D2FF4D4B06226D
:1015E8004949184608F006F84B4B2C221A70082275
:1015F8000021454807F0E4FF484B1B681A46444958
:10160800414807F0BDFF464B06223F49184607F000
:10161800F1FF444B444A1188927819809A706423E8
:101628004FF496722F49414806F0E5FB404B1B7872
:10163800002B1BD03E4B00221A704FF40072002181
:101648003C4807F0BDFF4FF400713A4800F0C0F97C
:10165800642340F217123749344806F0CCFB364B66
:101668005B68354A1361354B01221A70344B1B787D
:10167800002B0FD000237B60314B00221A704FF4EF
:10168800007200212B4807F09BFF4FF40071294896
:1016980000F056F92B4B1B781D2B07D9294B00223C
:1016A8001A704FF40071234800F050F8264B1B784D
:1016B800002B0DD0244B00221A704FF40072002129
:1016C8001C4807F07DFF4FF400711A4800F0B6F887
:1016D80000BF0837BD4680BD130200205C0800200B
:1016E8005408002030040020A89F0008330400207C
:1016F8003D0400204304002010020020490400207B
:10170800280200202B030020640D00201C0200206A
:10171800AC9F00084C050020520500202002002044
:101728005305002059050020B49F0008380F0020F9
:1017380016020020640B0020E80100201702002098
:10174800190200201A02002024020020B0B584B03B
:1017580000AF786039600023FB6032493248FFF7F8
:1017680021FC3B681A460021786807F029FF7B684E
:101778002E4A1188927819809A707B68033318462C
:1017880000F06EF97B680D3306222649184607F0EB
:1017980031FF7B68133306222349184607F02AFFD6
:1017A8007B6819332C221A707B681A3320491A4631
:1017B8000B4603CB106051601B8813817B68243370
:1017C8002C221A707B68253319491A460B4603CB1D
:1017D800106051601B8813817B682F332C221A708C
:1017E8007B683033134A1D4614460FCC2860696065
:1017F800AA60EB6023882B827B6843332C221A7003
:101808007868FEF745FD0346FB60FB687A68134479
:1018180002220949184607F035FF00BF1037BD46B8
:10182800B0BD00BF5C08002054080020B89F000825
:10183800BC9F0008C89F0008B49F0008B0B582B0DC
:1018480000AF7860396036493648FFF7ABFB3B6834
:101858001A460021786807F0B3FE7B68324A11887F
:10186800927819809A707B680333184600F0F8F86C
:101878007B680D3306222A49184607F0BBFE7B68B1
:10188800133306222749184607F0B4FE274B1B7866
:10189800AA2B13D17B68193331221A70234B0022EB
:1018A8001A707B681A33224A1D4614460FCC2860EA
:1018B8006960AA60EB6023882B821EE01B4B1B78B3
:1018C800FF2B13D17B68193330221A707B681A33C7
:1018D800184A1D4614460FCC28606960AA60EB6060
:1018E80023882B82114B00221A7006E07B6819337B
:1018F80033221A700D4B00221A707B682C330E228B
:101908000D49184607F076FE7B683A330B491A46AC
:101918000B461B88138000BF0837BD46B0BD00BF0B
:101928005C08002054080020DC9F00086C0D002093
:10193800E09F0008F49F000830080020B49F0008CA
:1019480080B584B000AF786039600023FB601B4924
:101958001B48FFF727FB7B681A4A11889278198081
:101968009A707B680333184600F07AF87B680D3369
:1019780006221249184607F03DFE7B6813330622FB
:101988000F49184607F036FE7868FEF781FC0346D3
:10199800FB607B68193340F203120B49184607F0C5
:1019A80071FE7B6803F58E7302220849184607F01A
:1019B80069FE00BF1037BD4680BD00BF5C0800202F
:1019C8005408002008A00008E4090020B49F00087B
:1019D80080B584B000AF786039600023FB601B4994
:1019E8001B48FFF7DFFA7B681A4A1188927819803A
:1019F8009A707B680333184600F032F87B680D3321
:101A080006221249184607F0F5FD7B6813330622B3
:101A18000F49184607F0EEFD7868FEF739FC0346D3
:101A2800FB60FB687A68134440F203120A491846BF
:101A380007F028FE7B6803F58E73022207491846D3
:101A480007F020FE00BF1037BD4680BD5C080020AF
:101A5800540800200CA0000864080020B49F000867
:101A680080B483B000AF78607B6807491A460B469C
:101A780003CB106051601B88138100BF0C37BD4633
:101A88005DF8047B704700BF10A0000880B58AB0DD
:101A980000AF07F1140300221A605A609A60DA60F6
:101AA8001A61514BD3F88C304F4A43F00403C2F803
:101AB8008C304D4BD3F88C3003F004033B613B6909
:101AC800494BD3F88C30484A43F08003C2F88C3035
:101AD800454BD3F88C3003F08003FB60FB68424B26
:101AE800D3F88C30404A43F00103C2F88C303E4BA7
:101AF800D3F88C3003F00103BB60BB683A4BD3F8D2
:101B08008C30394A43F00203C2F88C30364BD3F894
:101B18008C3003F002037B607B6800224FF4005195
:101B2800324802F019F900224FF4EC61304802F013
:101B380013F90022FF212F4802F00EF94FF4005349
:101B48007B610123BB610023FB6100233B6207F13A
:101B580014031946254801F0ADFF4FF4EC637B618F
:101B68000123BB610023FB6100233B6207F11403DF
:101B780019461F4801F09EFF80237B611E4BBB6105
:101B88000023FB6107F114031946194801F092FF7D
:101B9800FF237B610123BB610023FB6100233B62C0
:101BA80007F114031946134801F084FF4FF400634A
:101BB8007B610023BB610023FB6107F11403194615
:101BC8000B4801F077FF4FF480737B610023BB6102
:101BD8000023FB6107F114031946064801F06AFF68
:101BE80000BF2837BD4680BD000C024400080242F1
:101BF80000000242000402420000111080B500AF4C
:101C080000F050FE00F058F8FFF740FFFFF7E8F942
:101C180000F0BAF800F0C2FA00F0F8FA00F0B8FBE9
:101C280000F002FC00F0CCFD184801F089FA1848D1
:101C380005F028FD174805F025FD0222164917482A
:101C4800FFF73EF816491748FFF7ACF9FEF7B4FC62
:101C5800154B1B68012B02D1FEF7D6FC01E0FEF7FD
:101C680037FDFEF7FDFD114B1B68772B04DDFEF7F2
:101C7800CDFD0E4B00221A60FFF75CFC40F22D12DE
:101C88000B490C4806F056F9DCE700BF700D002040
:101C9800A00E0020EC0E00207C0000207400002024
:101CA800DC0D0020D40D002000010020540100208C
:101CB80030060020380F002080B59CB000AF07F137
:101CC800200350220021184607F07AFC07F1080388
:101CD80000221A605A609A60DA601A615A61254BCC
:101CE8001B69244A23F030031361224B1B6903F05C
:101CF80030037B607B6800BF1E4B5B6903F0080301
:101D0800082BF9D103233B624FF480337B62012314
:101D1800FB6210233B6340237B630023BB6407F112
:101D28002003184602F030F80346002B01D000F0DB
:101D380025F81F23BB600223FB6000233B610023BF
:101D48007B610023BB610023FB6107F108030121CC
:101D5800184602F051FC0346002B01D000F00EF8A3
:101D6800054B1B68044A23F03003136000BF70372B
:101D7800BD4680BD000802440020024080B400AF88
:101D880072B600BF00BFFDE780B500AF274B284AF9
:101D98001A60264B4FF480025A60244B00229A6046
:101DA800224B0722DA60214B00221A611F4B0022C6
:101DB8005A611E4B4FF080629A611C4B4FF0805263
:101DC800DA611A4B00221A62184B00225A62174B2A
:101DD80000229A62154B0722DA62144B00225A63DA
:101DE800124B00229A63114B0022DA630F4B002238
:101DF8009A640E4B0022DA640C4B00221A650B4BD6
:101E080000225A65094B00229A65084B0022DA65C0
:101E1800064B00221A66054805F002F80346002B17
:101E280001D0FFF7ABFF00BF80BD00BFE40D00206D
:101E38000038004080B5ACB000AF786007F19C0373
:101E480000221A605A609A60DA601A6107F110037A
:101E580088220021184607F0B3FB7B681B68354AC7
:101E6800934263D14FF080524FF00003C7E9042337
:101E78000123BB610223FB6114233B6228237B629D
:101E88002823BB620223FB620C233B6300237B6392
:101E98000023BB634FF48033FB630823C7F880300B
:101EA80007F11003184602F0E9FE0346002B01D0A3
:101EB800FFF764FF204BD3F89C301F4A43F480435C
:101EC800C2F89C301C4BD3F89C3003F48043FB6071
:101ED800FB68194BD3F88C30174A43F00203C2F859
:101EE8008C30154BD3F88C3003F00203BB60BB6811
:101EF8004FF46043C7F89C300223C7F8A030002392
:101F0800C7F8A4300023C7F8A8300523C7F8AC30B9
:101F180007F19C031946094801F0CCFD0022002175
:101F2800382000F035FE382000F04CFE00BFB037F6
:101F3800BD4680BD00380040000C02440004024247
:101F480080B400AF00BFBD465DF8047B704780B425
:101F580000AF00BFFDE780B400AF00BFFDE780B46D
:101F680000AF00BFFDE780B400AF00BFFDE780B45D
:101F780000AF00BFFDE780B400AF00BFBD465DF80D
:101F8800047B704780B400AF00BFBD465DF8047B9A
:101F9800704780B400AF00BFBD465DF8047B704752
:101FA80080B500AF00F01CFD00BF80BD80B500AF5C
:101FB800024807F033FA00BF80BD00BFF4100020CC
:101FC80080B500AF024801F015FB00BF80BD00BF1F
:101FD800700D002080B500AF024805F0A7FB00BFD8
:101FE80080BD00BFA00E002080B500AF024805F0FC
:101FF8009DFB00BF80BD00BFEC0E002080B500AF88
:10200800024805F00DF800BF80BD00BFE40D0020B8
:1020180080B500AF024806F031F800BF80BD00BFB0
:10202800380F002080B500AF024806F027F800BF3F
:1020380080BD00BFCC0F002080B500AF024806F07D
:102048001DF800BF80BD00BF6010002080B586B0BD
:1020580000AF7860144A154BD31A7B617B693B61EA
:10206800134B1B68002B02D1114B124A1A60104BFC
:102078001A687B6813443A699A4207D207F0CEFA85
:1020880003460C221A604FF0FF3309E0084B1B6827
:10209800FB60074B1A687B681344054A1360FB68AA
:1020A80018461837BD4680BD008000200004000097
:1020B800740E00205812002080B483B000AF304B5B
:1020C800D3F888302E4A43F47003C2F888302D4B79
:1020D80001221A602B4B0022DA612A4B00221A6275
:1020E800284B1A682749284B13400B60254B0022C0
:1020F8009A62244B0022DA62224B244A5A63214B0B
:1021080000229A631F4B214ADA631E4B00221A648D
:102118001C4B1B681B4A23F480231360194B0022B5
:102128001A65174B4FF000629A60194B9B6903F0D0
:1021380060437B607B68B3F1604F03D07B68B3F189
:10214800404F17D1124BDB6903F00103002B05D078
:102158000F4B104ADA600E4B0F4ADA600C4BDB6902
:102168000B4A43F00203D361094BDB69084A43F089
:102178000103D36100BF0C37BD465DF8047B70478F
:1021880000ED00E0000C0244E3EAE2FA80020101FB
:10219800002002403B2A19087F6E5D4C80B584B050
:1021A80000AF3B1D00221A605A609A60154B164A10
:1021B8001A60144B40F2CF725A60124B00229A6098
:1021C800104B42F6E062DA600E4B00229A610D482D
:1021D80005F001FA0346002B01D0FFF7CFFD0023DD
:1021E8007B600023FB603B1D1946064805F07CFC1C
:1021F8000346002B01D0FFF7C1FD00BF1037BD46D5
:1022080080BD00BFA00E00200010004080B584B043
:1022180000AF3B1D00221A605A609A60154B164A9F
:102228001A60144B40F2E7325A60124B00229A604F
:10223800104B4FF49662DA600E4B00229A610D48FB
:1022480005F0C9F90346002B01D0FFF797FD0023DD
:102258007B600023FB603B1D1946064805F044FCE3
:102268000346002B01D0FFF789FD00BF1037BD469C
:1022780080BD00BFEC0E00200014004080B584B083
:1022880000AF78607B681B681D4A934217D11D4BCD
:10229800D3F89C301B4A43F01003C2F89C30194B0A
:1022A800D3F89C3003F01003FB60FB680022002188
:1022B800312000F06DFC312000F084FC1BE07B68CD
:1022C8001B68114A934216D10E4BD3F89C300D4A25
:1022D80043F02003C2F89C300A4BD3F89C3003F03B
:1022E8002003BB60BB6800220021322000F050FCB4
:1022F800322000F067FC00BF1037BD4680BD00BF2C
:1023080000100040000C02440014004080B582B068
:1023180000AF78607B681B68154A93421AD1154B49
:102328001B680133134A1360124B1B68124A93420D
:1023380010DD06221149124807F05CF90F491048D0
:10234800FEF768FB082230210E4807F039F9094BDF
:1023580000221A607B681B680B4A934204D10B4B1E
:102368001B680133094A136000BF0837BD4680BDAA
:1023780000100040780E00207F5101006C00002002
:102388007C0E00208C010020001400409C0E0020D0
:1023980080B500AF224B234A1A60214B4FF4E1323B
:1023A8005A601F4B00229A601D4B0022DA601C4BBA
:1023B80000221A611A4B0C225A61194B00229A61A9
:1023C800174B0022DA61164B00221A62144B0022C6
:1023D8005A62134B00229A62114805F033FC0346F7
:1023E800002B01D0FFF7CAFC00210D4806F027FF9B
:1023F8000346002B01D0FFF7C1FC0021084806F076
:102408005CFF0346002B01D0FFF7B8FC044806F038
:10241800DDFE0346002B01D0FFF7B0FC00BF80BDF6
:10242800380F00200038014080B500AF224B234A06
:102438001A60214B4FF4E1325A601F4B00229A6018
:102448001D4B0022DA601C4B00221A611A4B0C2229
:102458005A61194B00229A61174B0022DA61164B18
:1024680000221A62144B00225A62134B00229A620D
:10247800114805F0E7FB0346002B01D0FFF77EFC6F
:1024880000210D4806F0DBFE0346002B01D0FFF7C4
:1024980075FC0021084806F010FF0346002B01D008
:1024A800FFF76CFC044806F091FE0346002B01D0B0
:1024B800FFF764FC00BF80BD6010002000480040AA
:1024C80080B5B0B000AF786007F1AC0300221A60A5
:1024D8005A609A60DA601A6107F1200388220021A5
:1024E800184607F06DF87B681B68884A934263D1E9
:1024F8004FF001024FF00003C7E9082300237B6572
:1025080007F12003184602F0B9FB0346002B01D05F
:10251800FFF734FC7E4BD3F8A4307D4A43F4804364
:10252800C2F8A4307A4BD3F8A43003F48043FB619B
:10253800FB69774BD3F88C30754A43F00103C2F836
:102548008C30734BD3F88C3003F00103BB61BB694B
:102558000723C7F8AC300223C7F8B0300023C7F808
:10256800B4300023C7F8B8300823C7F8BC3007F1E7
:10257800AC031946674801F09DFA4FF48053C7F839
:10258800AC300223C7F8B0300023C7F8B4300023BA
:10259800C7F8B8300723C7F8BC3007F1AC031946B1
:1025A8005C4801F087FA002200213A2000F0F0FA96
:1025B8003A2000F007FBA5E07B681B68564A934267
:1025C8004ED14FF002024FF00003C7E90823002361
:1025D800BB6507F12003184602F050FB0346002BA9
:1025E80001D0FFF7CBFB4A4BD3F89C30484A43F461
:1025F8000033C2F89C30464BD3F89C3003F40033C8
:102608007B617B69424BD3F88C30414A43F001032C
:10261800C2F88C303E4BD3F88C3003F001033B6199
:102628003B694FF44043C7F8AC300223C7F8B030D9
:102638000023C7F8B4300023C7F8B8300923C7F817
:10264800BC3007F1AC031946324801F033FA0022D6
:1026580000213B2000F09CFA3B2000F0B3FA51E047
:102668007B681B682D4A93424CD14FF004024FF00F
:102678000003C7E908230023FB6507F12003184678
:1026880002F0FCFA0346002B01D0FFF777FB204B42
:10269800D3F89C301E4A43F48023C2F89C301C4B6C
:1026A800D3F89C3003F48023FB60FB68184BD3F805
:1026B8008C30174A43F00103C2F88C30144BD3F81E
:1026C8008C3003F00103BB60BB681823C7F8AC303B
:1026D8000223C7F8B0300023C7F8B4300023C7F886
:1026E800B8300D23C7F8BC3007F1AC0319460948C8
:1026F80001F0E0F9002200213C2000F049FA3C20DA
:1027080000F060FA00BFC037BD4680BD0038014008
:10271800000C02440000024200440040004800400F
:1027280080B489B000AF0346B9607A60FB730023B8
:10273800FB610023BB6111E0FB7D002B01D1FF236E
:1027480037E0FB695A1CFA61BA6813441B78FB75B9
:10275800FB7D2C2BF0D1BB690133BB61FB7B013BBB
:102768001A46BB699342ECD30023BB6111E0FB7DA1
:102778000D2B18D0FB7D0A2B15D0BB695A1CBA61EA
:102788007A681344FA7D1A70FB7D002B01D1FF2370
:102798000FE0FB695A1CFA61BA6813441B78FB7591
:1027A800FB7D2C2BE3D17A68BB69134400221A7095
:1027B800002318462437BD465DF8047B70470000A7
:1027C80080B500AF0C4B0D4A1A600B4B00225A60C3
:1027D800094B40229A60084B4022DA60064B0022DF
:1027E8001A61054806F0F6FD0346002B01D0FFF7F5
:1027F800C5FA00BF80BD00BFF4100020002C0040C7
:1028080080B584B000AF78607B681B680E4A93423D
:1028180016D10E4BD3F89C300C4A43F40063C2F82F
:102828009C300A4BD3F89C3003F40063FB60FB68D0
:1028380000220021002000F0ABF9002000F0C2F9CE
:1028480000BF1037BD4680BD002C0040000C02447C
:10285800DFF834D0002103E00C4B5B5843500431BF
:102868000B480C4B42189A42F6D30B4A02E000235D
:1028780042F8043B094B9A42F9D3FFF71DFC06F0D6
:10288800D3FEFFF7BBF9FEE700800020B0A10008E7
:1028980000000020E0000020E0000020541200208A
:1028A800FEE7000080B500AF032000F066F902F0F3
:1028B8005BF802460C4B1B6A03F00F030B49CB5C19
:1028C80022FA03F30A4A1360042000F0ABF90F2040
:1028D80000F010F80346002B01D0012302E0FFF7B7
:1028E8002FFB0023184680BD000C02441CA00008E2
:1028F8008400002080B584B000AF78600023FB60BE
:10290800334B1B78002B01D101235CE0314B1B6852
:1029180003F00403042B0CD12F4B1A682C4B1B78A3
:1029280019464FF47A73B3FBF1F3B2FBF3F3FB6090
:1029380037E000F0CFF9B860BB68022B23D0BB6842
:10294800022B2DD8BB68002B03D0BB68012B0DD000
:1029580026E0214B1A681E4B1B7819464FF4FA5390
:10296800B3FBF1F3B2FBF3F3FB601AE0184B1B78EF
:102978001A464FF47A73B3FBF2F34FF4FA42B2FB00
:10298800F3F3FB600DE0124B1B781A464FF47A7391
:10299800B3FBF2F34FF40042B2FBF3F3FB6000E049
:1029A80000BFF86800F01CF90346002B01D0012392
:1029B80009E0002279684FF0FF3000F0E9F8074A93
:1029C8007B681360002318461037BD4680BD00BFE2
:1029D8008C00002010E000E0840000208800002027
:1029E80080B400AF064B1B781A46064B1B6813448D
:1029F800044A136000BFBD465DF8047B704700BF02
:102A08008C0000200811002080B400AF034B1B6825
:102A18001846BD465DF8047B704700BF08110020CA
:102A280080B485B000AF78607B6803F00703FB6073
:102A38000C4BDB68BB60BA684FF6FF031340BB6002
:102A4800FB681A02BB68134343F0BF6343F40033C7
:102A5800BB60044ABB68D36000BF1437BD465DF84D
:102A6800047B704700ED00E080B400AF044BDB68E6
:102A78001B0A03F007031846BD465DF8047B704740
:102A880000ED00E080B483B000AF0346FB80B7F9E7
:102A98000630002B0BDBFB8803F01F020749B7F950
:102AA80006305B09012000FA02F241F8232000BF3A
:102AB8000C37BD465DF8047B704700BF00E100E0BD
:102AC80080B483B000AF03463960FB80B7F90630A5
:102AD800002B0ADB3B68DAB20C49B7F90630120161
:102AE800D2B20B4483F800230AE03B68DAB2084903
:102AF800FB8803F00F03043B1201D2B20B441A7691
:102B080000BF0C37BD465DF8047B704700E100E06C
:102B180000ED00E080B489B000AFF860B9607A6079
:102B2800FB6803F00703FB61FB69C3F10703042B90
:102B380028BF0423BB61FB690433062B02D9FB6958
:102B4800033B00E000237B614FF0FF32BB6902FAD0
:102B580003F3DA43BB681A407B699A404FF0FF31B0
:102B68007B6901FA03F3D9437B680B40134318468A
:102B78002437BD465DF8047B704780B582B000AF4E
:102B880078607868FFF74CFF00BF0837BD4680BD06
:102B980080B586B000AF0346B9607A60FB81FFF765
:102BA80063FF78617A68B9687869FFF7B3FF02460E
:102BB800B7F90E3011461846FFF782FF00BF1837E5
:102BC800BD4680BD80B582B000AF0346FB80B7F933
:102BD80006301846FFF756FF00BF0837BD4680BDD0
:102BE80080B483B000AF78607B68013BB3F1807F2D
:102BF80001D301230DE00A4A7B68013B5360084B6F
:102C080000229A60064B1B68054A43F003031360D1
:102C1800002318460C37BD465DF8047B704700BF9B
:102C280010E000E080B483B000AF78607B68042BCC
:102C380044D801A252F823F0632C0008812C000824
:102C4800A32C0008C52C0008552C00081F4B1B6836
:102C58001E4A43F00403136031E01C4B1B681B4AF7
:102C680023F0040313601A4BD3F8E430184A23F016
:102C78000C03C2F8E43022E0144B1B68134A23F01B
:102C880004031360124BD3F8E43023F00C03104A0A
:102C980043F00403C2F8E43011E00C4B1B680B4A04
:102CA80023F0040313600A4BD3F8E43023F00C0339
:102CB800074A43F00803C2F8E43000E000BF00BF51
:102CC8000C37BD465DF8047B704700BF10E000E09C
:102CD800000C024480B483B000AF174B1B6803F0AC
:102CE8000403002B02D004237B601EE0134BD3F8AF
:102CF800E43003F00C033B603B68082B0FD03B68C3
:102D0800082B0FD83B68002B03D03B68042B03D05B
:102D180008E000237B6008E001237B6005E00223D4
:102D28007B6002E000237B6000BF7B6818460C379D
:102D3800BD465DF8047B704710E000E0000C0244DB
:102D480080B584B000AF7860FFF75EFEF8607B68FE
:102D5800002B01D101236BE07B6893F85430DBB280
:102D6800022B08D07B6820229A657B68002283F8B2
:102D78004C2001235CE07B681B685A697B681B68F0
:102D880042F004025A617B68052283F8542020E04F
:102D9800FFF73AFE0246FB68D31A052B19D97B6860
:102DA8009B6D43F010027B689A657B68032283F869
:102DB80054207B681B6D03F08003002B03D07B68D5
:102DC8005B6F01221A737B68002283F84C20012371
:102DD8002EE07B681B681B6903F40053002BD7D0D7
:102DE8007B681B685A697B681B6842F002025A615B
:102DF8007B68042283F854207B681B684FF4FE42EA
:102E0800DA607B68012283F854207B681B6D03F02D
:102E18008003002B07D07B685B6F01221A737B68E5
:102E28001B6800229A647B68002283F84C200023E8
:102E380018461037BD4680BD80B483B000AF7860B7
:102E48007B68002B01D1012319E07B6893F854308B
:102E5800DBB2022B04D07B6820229A6501230EE0A6
:102E68007B68042283F854207B681B685B697A6856
:102E7800126843F4005343F00403536100231846D7
:102E88000C37BD465DF8047B7047000080B584B000
:102E980000AF78607B68002B01D1012347E17B6894
:102EA80093F85C30DBB2002B06D17B68002283F8F4
:102EB8005D207868FEF7EEF87B681B689A697B6886
:102EC8001B6822F010029A61FFF79EFDF86012E07D
:102ED800FFF79AFD0246FB68D31A0A2B0BD97B68C9
:102EE8001B6E43F001027B681A667B68032283F835
:102EF8005C2001231BE17B681B689B6903F00803C6
:102F0800082BE5D07B681B689A697B681B6842F0D0
:102F180001029A61FFF778FDF86012E0FFF774FD8F
:102F28000246FB68D31A0A2B0BD97B681B6E43F049
:102F380001027B681A667B68032283F85C20012300
:102F4800F5E07B681B689B6903F00103002BE5D063
:102F58007B681B689A697B681B6842F002029A6169
:102F68007B681B68744A934203D1744A7B685B6828
:102F780013607B681B7C012B08D17B681B689A69EE
:102F88007B681B6822F040029A6107E07B681B6837
:102F98009A697B681B6842F040029A617B685B7C97
:102FA800012B08D17B681B689A697B681B6842F40F
:102FB80080429A6107E07B681B689A697B681B6896
:102FC80022F480429A617B689B7C012B08D17B6844
:102FD8001B689A697B681B6822F480529A6107E033
:102FE8007B681B689A697B681B6842F480529A6107
:102FF8007B681B689B6923F440717B689A687B68CF
:103008001B680A439A617B681B689A697B681B681E
:1030180022F0A4029A617B681B681A697B681B68A6
:1030280022F010021A617B68DB68012B08D17B68EB
:103038001B689A697B681B6842F004029A612CE05D
:103048007B68DB68002B28D07B68DB68022B1CD0F0
:103058007B681B689A697B681B6842F080029A61EA
:103068007B681B681A697B681B6842F010021A614A
:103078007B68DB68032B10D17B681B689A697B68C7
:103088001B6842F020029A6107E07B681B689A6916
:103098007B681B6842F020029A617B689B69013B50
:1030A8005A067B68DB69013B1B021A437B681B6A73
:1030B800013B42EA03017B685B69013B1A047B68B8
:1030C8001B680A43DA617B689B68B3F5407F15D1BA
:1030D8007B689B6A5A1E7B68DB6A013B1B021A43AA
:1030E8007B681B6B013B1B0142EA03017B685B6A3F
:1030F800013B1A047B681B680A43DA607B681B681B
:10310800D3F8C0107B68DA6B7B681B680A43C3F886
:10311800C020786800F0FCFB7B6800229A657B6819
:1031280000221A667B68012283F85C200023184677
:103138001037BD4680BD00BF00A4004000A5004078
:1031480080B483B000AF78607B6893F85C30DBB202
:10315800012B10D17B68022283F85C207B681B68F6
:103168009A697B681B6822F001029A617B680022D9
:103178001A66002306E07B681B6E43F004027B6836
:103188001A66012318460C37BD465DF8047B704764
:1031980080B586B000AFF860B9607A60FB6893F8D4
:1031A8005C30DBB2022B2CD1FB681B68D3F8C4302F
:1031B80003F40013002B07D0FB681B6E43F4007266
:1031C800FB681A66012323E0FB681B68D3F8C43048
:1031D8001B0C03F003037B617B697A68B968F868A4
:1031E80000F0ECFBFB681B6801217A6901FA02F226
:1031F800C3F8CC2001227B699A40FB689A650023BA
:1032080006E0FB681B6E43F00802FB681A660123A0
:1032180018461837BD4680BD80B48BB000AFF86043
:10322800B9607A603B600023FB61FB6893F85C300F
:10323800FB76FB7E022B40F0E880BB68402B37D141
:10324800FB681B68D3F8903003F00F03002B07D1FD
:10325800FB681B6E43F48072FB681A660123DBE08F
:10326800FB681B68D3F890301B0E03F00103012B99
:103278000AD1FB681B68D3F880305B0A03F00103AE
:10328800012B01D10123FB61FB681B68D3F8903047
:103298001B0A03F00303FA691344FB61FB68996C8A
:1032A800FA691346DB001344DB000B447B6236E00B
:1032B800FB681B68D3F8983003F00F03002B07D185
:1032C800FB681B6E43F48072FB681A660123A3E057
:1032D800FB681B68D3F898301B0E03F00103012B21
:1032E8000AD1FB681B68D3F880301B0A03F001037E
:1032F800012B01D10123FB61FB681B68D3F89830CF
:103308001B0A03F00303FA691344FB61FB68D96CD9
:10331800FA691346DB001344DB000B447B627B6ACB
:103328001B6803F080427B685A607B685B68002BEF
:1033380007D17B6A1B689B0CC3F30A027B681A607F
:1033480005E07B6A1B6823F060427B681A607B6A31
:103358001B6803F000527B689A607B6A1B6803F065
:1033680000427B681A617B6A04337B627B6A1B6854
:103378009AB27B68DA617B6A1B681B0C03F00F0248
:103388007B68DA607B6A1B6803F480127B685A6189
:103398007B6A1B6803F400127B689A617B6A1B686E
:1033A8001B0E03F07F027B681A627B6A1B68DA0FC8
:1033B8007B685A627B6A04337B627B6A7B61002389
:1033C8003B620AE07A693B6A1A4439683B6A0B44F3
:1033D80012781A703B6A01333B627B68DB68114ADA
:1033E800D35C1A463B6A9342ECD3BB68402B05D1A9
:1033F800FB681B68FA69C3F8942004E0FB681B6843
:10340800FA69C3F89C20002306E0FB681B6E43F0B2
:103418000802FB681A66012318462C37BD465DF87A
:10342800047B704734A0000880B487B000AFF86010
:10343800B9607A60FB6893F85C30FB75FB7D012B03
:1034480003D0FB7D022B40F0C880FB681B689B6D96
:103458003B61BB6803F00703002B04D03B6903F012
:103468000103002B3BD0BB6803F03803002B04D0CA
:103478003B6903F00203002B31D0BB6803F4E0730F
:10348800002B04D03B6903F00403002B27D0BB6852
:1034980003F4F053002B04D03B6903F00803002B1E
:1034A8001DD0BB6803F46043002B04D03B6903F0D4
:1034B8001003002B13D0BB6803F44033002B04D057
:1034C8003B6903F02003002B09D0BB6803F47C039D
:1034D800002B0CD03B6903F04003002B07D1FB689D
:1034E8001B68DA6DFB681B6842F00102DA65BB688D
:1034F80003F00703002B04D03B6903F00103002B02
:103508003BD1BB6803F03803002B04D03B6903F0C0
:103518000203002B31D1BB6803F4E073002B04D005
:103528003B6903F00403002B27D1BB6803F4F05375
:10353800002B04D03B6903F00803002B1DD1BB68A6
:1035480003F46043002B04D03B6903F01003002B05
:1035580013D1BB6803F44033002B04D03B6903F05C
:103568002003002B09D1BB6803F47C03002B0CD08B
:103578003B6903F04003002B07D0FB681B68DA6D3A
:10358800FB681B6842F00202DA65BB6803F080033F
:10359800002B09D0FB681B68D3F8DC10FB681B689C
:1035A8007A680A43C3F8DC20BB6803F48073002BF5
:1035B80009D0FB681B68D3F8E010FB681B687A68C1
:1035C8000A43C3F8E020FB681B68596DFB681B6859
:1035D800BA680A435A65002306E0FB681B6E43F08D
:1035E8000202FB681A66012318461C37BD465DF8BF
:1035F800047B704780B58CB000AF78607B681B682F
:103608001B6D03F4E053FB627B681B685B6DFA6A11
:103618001340FB627B681B681B6D03F00703BB62EA
:103628007B681B685B6DBA6A1340BB627B681B686A
:103638001B6D03F038037B627B681B685B6D7A6ADD
:1036480013407B627B681B681B6D03F471033B624C
:103658007B681B685B6D3A6A13403B627B681B683A
:103668001B6D03F46023FB617B681B685B6DFA6963
:103678001340FB617B681B685B6DBB617B681B68E3
:103688001B6D7B617B6903F04003002B0BD0BB698A
:1036980003F04003002B06D07B681B6840221A65A4
:1036A800786800F016F97B6903F48073002B19D051
:1036B800BB6903F48073002B14D07B681B68D3F8B4
:1036C800D8303B617B681B68D3F8E0303A69134017
:1036D8003B617B681B684FF480721A6539697868AA
:1036E80000F0D8F8FB6A002B07D07B681B68FA6AE1
:1036F8001A65F96A786800F0A2F8BB6A002B07D04F
:103708007B681B68BA6A1A65B96A7868FDF732FD82
:103718007B6A002B07D07B681B687A6A1A65796A0E
:10372800786800F097F87B6903F40073002B0CD0DD
:10373800BB6903F40073002B07D07B681B684FF448
:1037480000721A65786800F090F87B6903F08003CE
:10375800002B18D0BB6903F08003002B13D07B68C3
:103768001B68D3F8D430FB607B681B68D3F8DC3067
:10377800FA681340FB607B681B6880221A65F96849
:10378800786800F07CF87B6903F40053002B0CD0B8
:10379800BB6903F40053002B07D07B681B684FF408
:1037A80000521A65786800F080F87B6903F40043DA
:1037B800002B0CD0BB6903F40043002B07D07B68B7
:1037C8001B684FF400421A65786800F078F87B6946
:1037D80003F48043002B0FD0BB6903F48043002B14
:1037E8000AD07B681B684FF480421A657B681B6EA1
:1037F80043F080027B681A66FB69002B07D07B6860
:103808001B68FA691A65F969786800F076F83B6A06
:10381800002B09D07B681B683A6A1A657B681A6EA8
:103828003B6A1A437B681A667B681B6E002B02D0C2
:10383800786800F058F800BF3037BD4680BD80B4C6
:1038480083B000AF7860396000BF0C37BD465DF8C3
:10385800047B704780B483B000AF7860396000BFE4
:103868000C37BD465DF8047B704780B483B000AF69
:10387800786000BF0C37BD465DF8047B704780B4A4
:1038880083B000AF7860396000BF0C37BD465DF883
:10389800047B704780B483B000AF7860396000BFA4
:1038A8000C37BD465DF8047B704780B483B000AF29
:1038B800786000BF0C37BD465DF8047B704780B464
:1038C80083B000AF786000BF0C37BD465DF8047B5D
:1038D800704780B483B000AF786000BF0C37BD4636
:1038E8005DF8047B704780B483B000AF786000BF98
:1038F8000C37BD465DF8047B704780B483B000AFD9
:103908007860396000BF0C37BD465DF8047B7047AE
:1039180080B485B000AF7860274BBB607B68BA681D
:103928001A647B681B68D3F8803023F4F8117B682D
:103938005B6B1A047B681B680A43C3F88020BB686A
:1039480003F170027B685A647B681B68D3F8803087
:1039580023F070617B689B6B1A067B681B680A43BF
:10396800C3F88020BB6803F1B0027B689A64BB6827
:1039780003F5C4727B68DA64BB6803F518727B6868
:103988001A65BB6803F51E727B685A65BB68FB60E5
:1039980005E0FB6800221A60FB680433FB60BB6823
:1039A80003F55473FA689A42F3D300BF00BF143783
:1039B800BD465DF8047B704700AC004080B489B018
:1039C80000AFF860B9607A603B60BB685B68002B49
:1039D8000AD1BB681A69BB689B681A43BB681B6835
:1039E8009B041343FB610AE0BB681A69BB689B68C8
:1039F8001A43BB681B68134343F08043FB61BB68F1
:103A08001B6A1A06BB68DB691A43BB689B691A43C1
:103A1800BB685B691A43BB68DB681B0413433B61E3
:103A2800FB68596D3A681346DB001344DB000B440E
:103A3800BB61BB69FA691A60BB690433BB61BB69C6
:103A48003A691A60BB690433BB6100237B6120E0DB
:103A58007B6903337A6813441B781A067B6902333F
:103A680079680B441B781B041A437B690133796816
:103A78000B441B781B02134379687A690A4412784D
:103A88001A43BB691A60BB690433BB617B690433A1
:103A98007B61BB68DB68064AD35C1A467B69934244
:103AA800D6D300BF00BF2437BD465DF8047B7047FE
:103AB80034A0000880B487B000AF78603960002374
:103AC8003B6136E13B681A6801213B6901FA03F35F
:103AD8001340FB60FB68002B00F028813B685B68A3
:103AE800022B03D03B685B68122B25D13B69DA08AF
:103AF8007B68083253F822307B613B6903F0070387
:103B08009B000F2202FA03F3DB437A6913407B61BF
:103B18003B681B6903F00F023B6903F007039B0036
:103B280002FA03F37A6913437B613B69DA087B681D
:103B38000832796943F822107B681B687B613B690E
:103B48005B00032202FA03F3DB437A6913407B61CB
:103B58003B685B6803F003023B695B0002FA03F30E
:103B68007A6913437B617B687A691A603B685B6892
:103B7800012B0BD03B685B68022B07D03B685B6866
:103B8800112B03D03B685B68122B30D17B689B6894
:103B98007B613B695B00032202FA03F3DB437A692A
:103BA80013407B613B68DA683B695B0002FA03F308
:103BB8007A6913437B617B687A699A607B685B6882
:103BC8007B6101223B6902FA03F3DB437A69134004
:103BD8007B613B685B681B0903F001023B6902FAE1
:103BE80003F37A6913437B617B687A695A603B689F
:103BF8005B68032B17D07B68DB687B613B695B00E4
:103C0800032202FA03F3DB437A6913407B613B68C2
:103C18009A683B695B0002FA03F37A6913437B6194
:103C28007B687A69DA603B685B6803F08053002B35
:103C38007CD0474A3B699B08183352F823307B6194
:103C48003B6903F00303DB000F2202FA03F3DB43B3
:103C58007A6913407B617B689A0A3E4B13403A6944
:103C680002F00302D20093407A6913437B6138491A
:103C78003B699B0818337A6941F82320344B1B6849
:103C88007B61FB68DB437A6913407B613B685B6857
:103C980003F48013002B03D07A69FB6813437B611C
:103CA8002B4A7B6913602A4B5B687B61FB68DB43AB
:103CB8007A6913407B613B685B6803F40013002B4F
:103CC80003D07A69FB6813437B61214A7B6953609F
:103CD8001F4BD3F884307B61FB68DB437A69134060
:103CE8007B613B685B6803F40033002B03D07A697F
:103CF800FB6813437B61164A7B69C2F88430144B16
:103D0800D3F880307B61FB68DB437A6913407B61C1
:103D18003B685B6803F48033002B03D07A69FB6847
:103D280013437B610A4A7B69C2F880303B690133DF
:103D38003B613B681A683B6922FA03F3002B7FF466
:103D4800C1AE00BF00BF1C37BD465DF8047B70479D
:103D5800002002447F7F2F0080B483B000AF7860DA
:103D68000B467B8013467B707B78002B03D07A88C8
:103D78007B689A6102E07A887B689A6200BF0C3798
:103D8800BD465DF8047B704780B588B000AF7860A9
:103D98007B68002B02D1012300F028BC944BDB691F
:103DA80003F01803FB61924B9B6A03F00303BB61AA
:103DB8007B681B6803F01003002B5BD0FB69082BA2
:103DC80005D0FB69182B14D1BB69022B11D17B6874
:103DD800DB69002B02D1012300F008BC844B9B69EE
:103DE80023F47C127B681B6A1B04814913438B6193
:103DF80040E07B68DB69002B23D07D4B1B687C4A45
:103E080043F480731360FEF7FFFD786108E0FEF766
:103E1800FBFD02467B69D31A022B01D90323E5E394
:103E2800734B1B6803F40073002BF0D0704B9B6935
:103E380023F47C127B681B6A1B046D4913438B6156
:103E480018E06B4B1B686A4A23F480731360FEF713
:103E5800DBFD786108E0FEF7D7FD02467B69D31ADF
:103E6800022B01D90323C1E3614B1B6803F40073E0
:103E7800002BF0D17B681B6803F00103002B00F0D6
:103E8800A080FB69102B05D0FB69182B09D1BB69F1
:103E9800032B06D17B685B68002B40F092800123DE
:103EA800A4E37B685B68B3F5803F06D1504B1B6881
:103EB8004F4A43F48033136058E07B685B68002BFB
:103EC80012D14B4B1B684A4A23F480331360484B8A
:103ED8001B68474A23F480131360454B1B68444A08
:103EE80023F48023136041E07B685B68B3F5A02F5F
:103EF80012D13F4B1B683E4A43F4802313603C4B6E
:103F08001B683B4A23F480131360394B1B68384AFB
:103F180043F48033136029E07B685B68B3F5A81F1E
:103F280012D1334B1B68324A43F480231360304B61
:103F38001B682F4A43F4801313602D4B1B682C4ACF
:103F480043F48033136011E0294B1B68284A23F49B
:103F580080331360264B1B68254A23F480231360A3
:103F6800234B1B68224A23F4801313607B685B6829
:103F7800002B13D0FEF748FD786108E0FEF744FDFA
:103F880002467B69D31A642B01D903232EE3184B0D
:103F98001B6803F40033002BF0D012E0FEF734FD69
:103FA800786108E0FEF730FD02467B69D31A642B7E
:103FB80001D903231AE30E4B1B6803F40033002BCB
:103FC800F0D17B681B6803F00203002B00F09A8095
:103FD800FB69002B05D0FB69182B49D1BB69012B64
:103FE80046D17B68DB68002B04D10123FEE200BFC9
:103FF800000C0244FB69002B1CD19A4B1B6803F090
:1040080018027B681B699A4214D0964B1B6823F0F0
:1040180018027B681B69934913430B6000F0D0FDBD
:10402800914B1B681846FEF765FC0346002B01D030
:104038000123DBE2FEF7E8FC786108E0FEF7E4FC28
:1040480002467B69D31A022B01D90323CEE2854BA2
:104058001B6803F00203002BF0D0824B1B6923F48A
:10406800FE027B685B691B047E4913430B6149E0D0
:104078007B68DB68002B2CD07A4B1B6823F0180276
:104088007B681B69774913430B60764B1B68754A3D
:1040980043F001031360FEF7B7FC786108E0FEF710
:1040A800B3FC02467B69D31A022B01D903239DE294
:1040B8006C4B1B6803F00203002BF0D0694B1B69A3
:1040C80023F4FE027B685B691B04664913430B619A
:1040D80018E0644B1B68634A23F001031360FEF782
:1040E80093FC786108E0FEF78FFC02467B69D31ADF
:1040F800022B01D9032379E25A4B1B6803F0020310
:10410800002BF0D17B681B6803F00803002B3CD020
:104118007B689B69002B1CD0524BD3F8F030514A76
:1041280043F08063C2F8F030FEF76EFC786108E077
:10413800FEF76AFC02467B69D31A022B01D90323D6
:1041480054E2484BD3F8F03003F00063002BEFD073
:104158001BE0444BD3F8F030424A23F08063C2F8A6
:10416800F030FEF751FC786108E0FEF74DFC02469E
:104178007B69D31A022B01D9032337E2394BD3F8D1
:10418800F03003F00063002BEFD17B681B6803F06D
:104198000403002B00F0D280344B5B6A03F0010368
:1041A800002B18D1314B5B6A304A43F0010353624C
:1041B800FEF72AFC786108E0FEF726FC02467B69D8
:1041C800D31A022B01D9032310E2284B5B6A03F0B0
:1041D8000103002BF0D07B689B68012B08D1214B91
:1041E800D3F8F0301F4A43F00103C2F8F03074E00E
:1041F8007B689B68002B18D11A4BD3F8F030194A0A
:1042080023F00103C2F8F030164BD3F8F030154A0A
:1042180023F08003C2F8F030124BD3F8F030114A83
:1042280023F00403C2F8F03057E07B689B68052B45
:104238001ED10C4BD3F8F0300A4A43F00403C2F8FD
:10424800F030084BD3F8F030064A23F08003C2F868
:10425800F030044BD3F8F030024A43F00103C2F8BF
:10426800F0303AE0000C02448800002000080244C4
:104278007B689B68852B18D1A24BD3F8F030A14AF4
:1042880043F00403C2F8F0309E4BD3F8F0309D4A57
:1042980043F08003C2F8F0309A4BD3F8F030994AD3
:1042A80043F00103C2F8F03017E0964BD3F8F03032
:1042B800944A23F00103C2F8F030924BD3F8F0305F
:1042C800904A23F00403C2F8F0308E4BD3F8F03054
:1042D8008C4A23F08003C2F8F0307B689B68002B7F
:1042E80016D0FEF791FB78610AE0FEF78DFB0246D7
:1042F8007B69D31A41F28832934201D9032375E1CD
:10430800804BD3F8F03003F00203002BEDD015E01A
:10431800FEF77AFB78610AE0FEF776FB02467B69D6
:10432800D31A41F28832934201D903235EE1754BD7
:10433800D3F8F03003F00203002BEDD17B681B6843
:1043480003F02003002B36D07B685B6A002B19D062
:104358006C4B1B686B4A43F480531360FEF754FBA5
:10436800786108E0FEF750FB02467B69D31A022BFE
:1043780001D903233AE1634B1B6803F40053002B74
:10438800F0D018E05F4B1B685E4A23F4805313603B
:10439800FEF73AFB786108E0FEF736FB02467B69D8
:1043A800D31A022B01D9032320E1564B1B6803F4CF
:1043B8000053002BF0D17B689B6A002B00F015811D
:1043C800FB69182B00F0AF807B689B6A022B40F0DA
:1043D80086804C4B1B684B4A23F080731360FEF7B2
:1043E80013FB786108E0FEF70FFB02467B69D31ADE
:1043F800022B01D90323F9E0424B1B6803F0007339
:10440800002BF0D13F4B9B6A23F47C5323F003032A
:104418007A68D16A7A68126B12020A4339491343DF
:104428008B627B685B6B013BC3F308027B689B6B09
:10443800013B5B029BB21A437B68DB6B013B1B04AD
:1044480003F4FE031A437B681B6C013B1B0603F055
:10445800FE432C4913434B632A4B9B6A294A23F09A
:10446800100393627B68DB6C264ADB009363254B61
:104478009B6A244A43F010039362224B9B6A23F001
:104488000C027B685B6C1F4913438B621D4B9B6A54
:1044980023F020027B689B6C1A4913438B62194BEB
:1044A8009B6A184A43F480339362164B1B68154A7B
:1044B80043F080731360FEF7A7FA786108E0FEF70F
:1044C800A3FA02467B69D31A022B01D903238DE094
:1044D8000C4B1B6803F00073002BF0D085E0094BF0
:1044E8001B68084A23F080731360FEF78DFA786121
:1044F8000AE0FEF789FA02467B69D31A022B03D930
:10450800032373E0000C02443A4B1B6803F000736A
:10451800002BEED1374B9B6A364A23F4E02323F075
:104528000303936261E0334B9B6A3B61314B5B6BE6
:10453800FB607B689B6A012B31D03B6903F0030267
:104548007B68DB6A9A422AD13B691B0A03F03F0267
:104558007B681B6B9A4222D1FB68C3F308027B6815
:104568005B6B013B9A421AD1FB685B0A03F07F023E
:104578007B689B6B013B9A4211D1FB681B0C03F0D3
:104588007F027B68DB6B013B9A4208D1FB681B0EFC
:1045980003F07F027B681B6C013B9A4201D0012328
:1045A80024E0144B9B6BDB08C3F30C027B68DB6CC9
:1045B8009A421AD00F4B9B6A0E4A23F0100393625B
:1045C800FEF722FA786100BFFEF71EFA02467B6901
:1045D8009342F9D07B68DB6C064ADB009363054B9A
:1045E8009B6A044A43F0100393620023184620375D
:1045F800BD4680BD000C024480B584B000AF786031
:1046080039607B68002B01D101239EE1834B1B6835
:1046180003F00F033A689A4210D9804B1B6823F0C5
:104628000F027E493B6813430B607C4B1B6803F009
:104638000F033A689A4201D0012386E17B681B6820
:1046480003F01003002B12D07B685A69744B1B6A65
:104658001B0A03F070039A4209D9714B1B6A23F4B1
:10466800E0427B685B691B026D4913430B627B6800
:104678001B6803F00803002B12D07B681A69684B8B
:104688001B6A1B0903F070039A4209D9644B1B6A21
:1046980023F4E0627B681B691B01614913430B62C9
:1046A8007B681B6803F00403002B10D07B68DA6872
:1046B8005B4B1B6A03F070039A4208D9584B1B6A7C
:1046C80023F070027B68DB68554913430B627B68F3
:1046D8001B6803F00203002B10D07B689A68504BCC
:1046E8001B6A03F00F039A4208D94D4B1B6A23F04B
:1046F8000F027B689B684A4913430B627B681B68FF
:1047080003F00103002B00F093807B685B68032BA8
:1047180007D1434B1B6803F00073002B21D1012301
:1047280013E17B685B68022B07D13D4B1B6803F4E0
:104738000033002B15D1012307E17B685B68012B4F
:1047480007D1374B1B6803F40073002B09D10123F1
:10475800FBE0334B1B6803F00203002B01D101235C
:10476800F3E02F4BDB6923F003027B685B682C497D
:104778001343CB61FEF748F9F8607B685B68032B4D
:1047880012D10AE0FEF740F90246FB68D31A41F25B
:104798008832934201D90323D7E0214BDB6903F028
:1047A8001803182BEED143E07B685B68022B12D10B
:1047B8000AE0FEF729F90246FB68D31A41F288326B
:1047C800934201D90323C0E0154BDB6903F01803BA
:1047D800102BEED12CE07B685B68012B22D10AE01C
:1047E800FEF712F90246FB68D31A41F28832934267
:1047F80001D90323A9E00A4BDB6903F01803082B4E
:10480800EED115E0FEF700F90246FB68D31A41F233
:104818008832934206D9032397E000BF0020024064
:10482800000C02444B4BDB6903F01803002BE9D161
:104838007B681B6803F00203002B10D07B689A6822
:10484800444B1B6A03F00F039A4208D2414B1B6A80
:1048580023F00F027B689B683E4913430B623E4B73
:104868001B6803F00F033A689A4210D23A4B1B6850
:1048780023F00F0238493B6813430B60364B1B6823
:1048880003F00F033A689A4201D001235DE07B6888
:104898001B6803F00403002B10D07B68DA682D4BEB
:1048A8001B6A03F070039A4208D22A4B1B6A23F052
:1048B80070027B68DB68274913430B627B681B68BF
:1048C80003F00803002B12D07B681A69214B1B6A7E
:1048D8001B0903F070039A4209D21E4B1B6A23F48A
:1048E800E0627B681B691B011A4913430B627B68F2
:1048F8001B6803F01003002B12D07B685A69154B14
:104908001B6A1B0A03F070039A4209D2114B1B6AF7
:1049180023F4E0427B685B691B020E4913430B6278
:1049280000F022F802460B4B1B6A03F00F030B49F9
:10493800CB5C22FA03F30A4A13600A4B1B68184639
:10494800FDF7D8FF0346FB72FB7A18461037BD46C1
:1049580080BD00BF000C0244002002401CA00008DB
:10496800840000208800002080B489B000AF8C4B00
:10497800DB6903F01803082B02D18A4BFB6107E1BE
:10498800874BDB6903F01803002B12D1844B1B689B
:1049980003F02003002B09D0814B1B68DB0803F0D0
:1049A8000303814A22FA03F3FB61F1E07E4BFB61CA
:1049B800EEE07B4BDB6903F01803102B02D17B4B35
:1049C800FB61E5E0764BDB6903F01803182B40F038
:1049D800DD80734B9B6A03F003037B61704B9B6A1A
:1049E8001B0A03F03F033B616D4B9B6A1B0903F0F5
:1049F8000103FB606A4B9B6BDB08C3F30C03FA688B
:104A080002FB03F307EE903AF8EE677AC7ED027AF5
:104A18003B69002B00F0B7807B69012B03D07B69D1
:104A2800032B56D077E05E4B1B6803F02003002B66
:104A38002DD05B4B1B68DB0803F003035A4A22FAAC
:104A480003F37B607B6807EE903AF8EE676A3B6990
:104A580007EE903AF8EE677A86EEA77A504B5B6BD2
:104A6800C3F3080307EE903AF8EE676A97ED026A17
:104A7800DFED4F5AC6EE257A76EEA77AF7EE006A92
:104A880077EEA67A67EE277AC7ED067A65E03B6986
:104A980007EE903AF8EE677ADFED466A86EEA77A77
:104AA8003F4B5B6BC3F3080307EE903AF8EE676A77
:104AB80097ED026ADFED3E5AC6EE257A76EEA77AC2
:104AC800F7EE006A77EEA67A67EE277AC7ED067AE0
:104AD80043E03B6907EE903AF8EE677ADFED366A15
:104AE80086EEA77A2E4B5B6BC3F3080307EE903A6A
:104AF800F8EE676A97ED026ADFED2D5AC6EE257A61
:104B080076EEA77AF7EE006A77EEA67A67EE277A4E
:104B1800C7ED067A21E03B6907EE903AF8EE677A2E
:104B2800DFED266A86EEA77A1D4B5B6BC3F308039D
:104B380007EE903AF8EE676A97ED026ADFED1C5AC5
:104B4800C6EE257A76EEA77AF7EE006A77EEA67AB1
:104B580067EE277AC7ED067A00BF114B5B6B5B0ADD
:104B680003F07F0301333B603B6807EE903AB8EEF1
:104B7800677AD7ED066AC6EE877AFCEEE77A17EE13
:104B8800903AFB6104E00023FB6101E0064BFB6106
:104B9800FB6918462437BD465DF8047B704700BFA3
:104BA800000C024400093D000090D00300366E015D
:104BB800000000460024744C001BB74B0024744AC4
:104BC80080B500AFFFF7D0FE0246084B1B6A03F022
:104BD8000F030749CB5C03F01F0322FA03F3054ACE
:104BE8001360044B1B68184680BD00BF000C0244CC
:104BF8001CA000088400002080B500AFFFF7E0FF8C
:104C08000246064B1B6A1B0903F007030449CB5CE9
:104C180003F01F0322FA03F3184680BD000C024478
:104C28002CA0000880B500AFFFF7CAFF0246064B6C
:104C38001B6A1B0A03F007030449CB5C03F01F033C
:104C480022FA03F3184680BD000C02442CA0000889
:104C580080B500AFFFF7B4FF0246064B1B6A1B0B7B
:104C680003F007030449CB5C03F01F0322FA03F3A4
:104C7800184680BD000C02442CA000082DE9B04F56
:104C8800AAB000AFC7F89400002387F8A330002328
:104C980087F8A230D7F89430D3E9002302F0807463
:104CA800002554EA05030BD0B84BD3F8E83023F0BD
:104CB8004041D7F894301B6BB44A0B43C2F8E83034
:104CC800D7F89430D3E9002302F001084FF0000927
:104CD80058EA090338D0D7F894305B6B052B19D8FC
:104CE80001A252F823F000BF254D0008094D000825
:104CF8001D4D0008254D0008254D0008254D0008CC
:104D0800D7F894300833184601F0F2FF034687F8C5
:104D1800A33004E0012387F8A33000E000BF97F830
:104D2800A330002B0CD1994BD3F8D83023F00701CE
:104D3800D7F894305B6B954A0B43C2F8D83003E040
:104D480097F8A33087F8A230D7F89430D3E9002336
:104D580002F0020A4FF0000B5AEA0B033CD0D7F8D6
:104D680094309B6B282B1BD0282B15D8202B19D0BF
:104D7800202B11D8182B17D0182B0DD8002B15D095
:104D8800082B09D1D7F894300833184601F0B0FF42
:104D9800034687F8A3300AE0012387F8A33006E02A
:104DA80000BF04E000BF02E000BF00E000BF97F8CA
:104DB800A330002B0CD1754BD3F8D83023F0380131
:104DC800D7F894309B6B714A0B43C2F8D83003E094
:104DD80097F8A33087F8A230D7F89430D3E90023A6
:104DE80002F00403C7F888300023C7F88C30D7E9ED
:104DF80022120B46134340D0D7F89430DB6BB3F53F
:104E0800A07F1ED0B3F5A07F17D8B3F5807F1AD046
:104E1800B3F5807F11D8C02B17D0C02B0DD8002B2D
:104E280015D0402B09D1D7F894300833184601F033
:104E38005FFF034687F8A3300AE0012387F8A33011
:104E480006E000BF04E000BF02E000BF00E000BFD2
:104E580097F8A330002B0CD14C4BD3F8D83023F45F
:104E6800E071D7F89430DB6B484A0B43C2F8D8306E
:104E780003E097F8A33087F8A230D7F89430D3E945
:104E8800002302F48053C7F880300023C7F8843029
:104E9800D7E920120B46134343D0D7F894301B6C44
:104EA800B3F1A06F21D0B3F1A06F1AD8B3F1806F1E
:104EB8001DD0B3F1806F14D8B3F1407F19D0B3F18E
:104EC800407F0ED8002B16D0B3F1807F09D1D7F8D8
:104ED80094300833184601F00BFF034687F8A330D7
:104EE8000AE0012387F8A33006E000BF04E000BF12
:104EF80002E000BF00E000BF97F8A330002B0CD100
:104F0800224BD3F8E03023F0E061D7F894301B6CE3
:104F18001E4A0B43C2F8E03003E097F8A33087F845
:104F2800A230D7F89430D3E9002302F40053BB67CA
:104F38000023FB67D7E91E120B4613433ED0D7F870
:104F480094305B6CB3F5403F1BD0B3F5403F14D8A9
:104F5800B3F5003F17D0B3F5003F0ED8002B17D09C
:104F6800B3F5803F09D1D7F894300833184601F0DB
:104F7800BFFE034687F8A3300BE0012387F8A33070
:104F880007E000BF05E000BF03E000BF000C0244DB
:104F980000BF97F8A330002B0CD1A54BD3F8E43011
:104FA80023F44031D7F894305B6CA14A0B43C2F824
:104FB800E43003E097F8A33087F8A230D7F89430AC
:104FC800D3E9002302F480433B6700237B67D7E9DA
:104FD8001C120B4613433BD0D7F894309B6CB3F5A7
:104FE800402F1BD0B3F5402F14D8B3F5002F17D09E
:104FF800B3F5002F0ED8002B14D0B3F5802F09D1AC
:10500800D7F894300833184601F072FE034687F843
:10501800A33008E0012387F8A33004E000BF02E0D2
:1050280000BF00E000BF97F8A330002B0CD1804BE5
:10503800D3F8E43023F44021D7F894309B6C7C4AB1
:105048000B43C2F8E43003E097F8A33087F8A230A6
:10505800D7F89430D3E9002302F48033BB660023E9
:10506800FB66D7E91A120B46134333D0D7F89430AE
:10507800DB6CB3F1007F15D0B3F1007F0ED8002BA5
:1050880012D0B3F1807F09D1D7F89430083318468D
:1050980001F02EFE034687F8A33006E0012387F8C7
:1050A800A33002E000BF00E000BF97F8A330002B58
:1050B8000CD15F4BD3F8E43023F04071D7F894302B
:1050C800DB6C5B4A0B43C2F8E43003E097F8A3308B
:1050D80087F8A230D7F89430D3E900230021396645
:1050E80003F480537B66D7E918120B46134333D079
:1050F800D7F894301B6DB3F1006F15D0B3F1006F82
:105108000ED8002B12D0B3F1806F09D1D7F89430A4
:105118000833184601F0ECFD034687F8A33006E093
:10512800012387F8A33002E000BF00E000BF97F832
:10513800A330002B0CD13E4BD3F8E43023F0406170
:10514800D7F894301B6D3A4A0B43C2F8E43003E0B9
:1051580097F8A33087F8A230D7F89430D3E9002322
:105168000021B96503F40063FB65D7E916120B4605
:1051780013430ED02E4BDB692D4A23F40043D36131
:105188002B4BD969D7F89430D3F88030284A0B4391
:10519800D361D7F89430D3E9002302F400333B6598
:1051A80000237B65D7E914120B46134346D0D7F882
:1051B80094305B6DB3F5A06F21D0B3F5A06F1AD80A
:1051C800B3F5806F1DD0B3F5806F14D8B3F5407F69
:1051D80019D0B3F5407F0ED8002B16D0B3F5807FD9
:1051E80009D1D7F894300833184601F081FD0346F9
:1051F80087F8A3300AE0012387F8A33006E000BF50
:1052080004E000BF02E000BF00E000BF97F8A33051
:10521800002B0FD1064BD3F8DC3023F4E061D7F82C
:1052280094305B6D024A0B43C2F8DC3006E000BFE5
:10523800000C024497F8A33087F8A230D7F89430CE
:10524800D3E9002302F48023BB640023FB64D7E97D
:1052580012120B46134343D0D7F894309B6DB3F525
:10526800A04F21D0B3F5A04F1AD8B3F5804F1DD069
:10527800B3F5804F14D8B3F5405F19D0B3F5405F4C
:105288000ED8002B16D0B3F5805F09D1D7F894302B
:105298000833184601F02CFD034687F8A3300AE0CE
:1052A800012387F8A33006E000BF04E000BF02E056
:1052B80000BF00E000BF97F8A330002B0CD1B64B1D
:1052C800D3F8DC3023F4E041D7F894309B6DB24A30
:1052D8000B43C2F8DC3003E097F8A33087F8A2301C
:1052E800D7F89430D3E9002302F400133B64002379
:1052F8007B64D7E910120B46134330D0D7F89430AB
:105308005B6E052B0FD8032B11D2012B11D9022B61
:1053180009D1D7F894300833184601F0E9FC034660
:1053280087F8A33006E0012387F8A33002E000BF26
:1053380000E000BF97F8A330002B0CD1964BD3F8B0
:10534800E83023F00701D7F894305B6E924A0B439C
:10535800C2F8E83003E097F8A33087F8A230D7F80E
:105368009430D3E900230021B96303F40073FB638D
:10537800D7E90E120B46134322D0D7F894309B6E10
:10538800002B05D0082B05D0012387F8A33002E0B5
:1053980000BF00E000BF97F8A330002B0CD17E4B74
:1053A800D3F8E83023F00801D7F894309B6E7A4A96
:1053B8000B43C2F8E83003E097F8A33087F8A2302F
:1053C800D7F89430D3E9002302F000733B6300233D
:1053D8007B63D7E90C120B46134300F0B0806F4B88
:1053E8005B6A6E4A43F001035362FDF70DFBC7F891
:1053F8009C000BE0FDF708FB0246D7F89C30D31A57
:10540800022B03D9032387F8A33005E0634B5B6ABB
:1054180003F00103002BEDD097F8A330002B40F0E8
:105428008A805D4BD3F8F03003F44073C7F8A4309A
:10543800D7F8A430002B22D0D7F894309B6FD7F838
:10544800A4209A421BD0544BD3F8F03023F4407375
:10545800C7F8A430504BD3F8F0304F4A43F48033A8
:10546800C2F8F0304C4BD3F8F0304B4A23F4803379
:10547800C2F8F030484AD7F8A430C2F8F030D7F86C
:10548800A43003F00103002B19D0FDF7BDFAC7F8CB
:105498009C000DE0FDF7B8FA0246D7F89C30D31A05
:1054A80041F28832934203D9032387F8A33006E0F8
:1054B800394BD3F8F03003F00203002BEAD097F809
:1054C800A330002B32D1D7F894309B6F03F440738C
:1054D800B3F5407F0FD1304BDB6923F47C51D7F80B
:1054E80094309B6F1B0923F07F4323F030032A4A33
:1054F8000B43D36105E0284BDB69274A23F47C532F
:10550800D361254BD3F8F030234A23F44073C2F813
:10551800F030214BD3F8F010D7F894309B6FC3F3D9
:105528000B031D4A0B43C2F8F03008E097F8A3308C
:1055380087F8A23003E097F8A33087F8A230D7F8AD
:105548009430D3E9002302F08063BB620023FB623E
:10555800D7E90A120B46134338D0D7F894301B6E9C
:10556800302B14D0302B0ED8202B12D0202B0AD859
:10557800002B15D0102B06D1074B9B6A064A43F423
:10558800003393620DE0012387F8A33009E000BFE0
:1055980007E000BF05E000BF000C02440008024419
:1055A80000BF97F8A330002B0CD1B54BD3F8E830E7
:1055B80023F03002D7F894301B6EB1491343C1F879
:1055C800E83003E097F8A33087F8A230D7F8943092
:1055D800D3E9002302F000633B6200237B62D7E932
:1055E80008120B4613433CD0D7F89430DB6E042BDB
:1055F8001DD801A252F823F01556000823560008BA
:10560800375600083F5600083F5600089C4B9B6AD7
:105618009B4A43F4003393620EE0D7F89430083382
:10562800184601F065FB034687F8A33004E0012320
:1056380087F8A33000E000BF97F8A330002B0CD107
:105648008F4BD3F8E03023F00702D7F89430DB6EA5
:105658008B491343C1F8E03003E097F8A33087F88B
:10566800A230D7F89430D3E9002302F08053BB610D
:105678000023FB61D7E906120B4613433CD0D7F849
:1056880094301B6F202B1FD0202B19D8182B1DD01E
:10569800182B15D8002B02D0082B07D010E0784B18
:1056A8009B6A774A43F40033936210E0D7F894304A
:1056B8000833184601F01CFB034687F8A33006E0C0
:1056C800012387F8A33002E000BF00E000BF97F88D
:1056D800A330002B0CD16A4BD3F8E03023F038020A
:1056E800D7F894301B6F66491343C1F8E03003E0E4
:1056F80097F8A33087F8A230D7F89430D3E900237D
:1057080002F000533B6100237B61D7E904120B468A
:1057180013433ED0D7F894305B6FB3F5807F20D029
:10572800B3F5807F19D8C02B1DD0C02B15D8002BFE
:1057380002D0402B07D010E0514B9B6A504A43F4EB
:105748000033936210E0D7F894300833184601F01C
:10575800CFFA034687F8A33006E0012387F8A33081
:1057680002E000BF00E000BF97F8A330002B0CD187
:10577800434BD3F8E03023F4E072D7F894305B6FF2
:105788003F491343C1F8E03003E097F8A33087F8A6
:10579800A230D7F89430D3E900230021B96003F090
:1057A8000403FB60D7E902120B46134338D0D7F83D
:1057B8009430DB6DB3F5007F0ED0B3F5007F15D8BC
:1057C800002B17D0B3F5807F10D12D4B9B6A2C4A44
:1057D80043F4003393620EE0D7F894300833184648
:1057E80001F086FA034687F8A33004E0012387F81E
:1057F800A33000E000BF97F8A330002B0CD1204B5A
:10580800D3F8E83023F44072D7F89430DB6D1C49A4
:105818001343C1F8E83003E097F8A33087F8A230C3
:10582800D7F89430D3E900230021396003F010033E
:105838007B60D7E900120B46134339D0D7F8943070
:10584800DB6F302B1ED0302B15D8102B02D0202B1D
:1058580007D010E00A4B9B6A094A43F4003393626D
:1058680011E0D7F894300833184601F041FA03469E
:1058780087F8A33007E0012387F8A33003E000BFCF
:10588800000C024400BF97F8A330002B0CD10C4B3E
:10589800D3F8E43023F03002D7F89430DB6F0849AE
:1058A8001343C1F8E43003E097F8A33087F8A23037
:1058B80097F8A2301846A837BD46BDE8B08F00BF9C
:1058C800000C024480B48BB000AF7860AE4B5B6BC9
:1058D800C3F308033B62AC4B9B6A03F00303FB6111
:1058E800A94B9B6A1B0A03F03F03BB61A64B9B6A4B
:1058F8001B0903F001037B61A34B9B6BDB08C3F31C
:105908000C037A6902FB03F307EE903AF8EE677A24
:10591800C7ED047ABB69002B00F02681FB69032BD5
:1059280053D0FB69032B6FD8FB69012B03D0FB69AC
:10593800022B2BD068E0944B1B68DB0803F00303B1
:10594800924A22FA03F3FB60FB6807EE903AF8EEFE
:10595800676ABB6907EE903AF8EE677A86EEA77A2F
:105968003B6A07EE903AF8EE676A97ED046ADFED56
:10597800885AC6EE257A76EEA77AF7EE006A77EEB1
:10598800A67A67EE277AC7ED097A68E0BB6907EE61
:10599800903AF8EE677ADFED7F6A86EEA77A3B6A7F
:1059A80007EE903AF8EE676A97ED046ADFED785AE9
:1059B800C6EE257A76EEA77AF7EE006A77EEA67A33
:1059C80067EE277AC7ED097A49E0BB6907EE903A96
:1059D800F8EE677ADFED706A86EEA77A3B6A07EE23
:1059E800903AF8EE676A97ED046ADFED695AC6EEF9
:1059F800257A76EEA77AF7EE006A77EEA67A67EE52
:105A0800277AC7ED097A2AE05F4B1B68DB0803F0A9
:105A180003035E4A22FA03F3FB60FB6807EE903A41
:105A2800F8EE676ABB6907EE903AF8EE677A86EE99
:105A3800A77A3B6A07EE903AF8EE676A97ED046A30
:105A4800DFED535AC6EE257A76EEA77AF7EE006AAE
:105A580077EEA67A67EE277AC7ED097A00BF4A4B38
:105A68001B6803F00073B3F1007F21D1464B9B6A9A
:105A780003F48033002B17D0434B5B6B5B0A03F0B6
:105A88007F0307EE903AF8EE677AB7EE007A37EEC2
:105A9800877AD7ED096AC6EE877AFCEEE77A17EEC1
:105AA800902A7B681A6006E07B6800221A6002E090
:105AB8007B6800221A60344B1B6803F00073B3F153
:105AC800007F21D1304B9B6A03F40033002B17D0A1
